:020000040800F2
:10000000502A0020114C0008013A0008033A000869
:10001000073A00080B3A00080F3A000800000000F9
:10002000000000000000000000000000133A00087B
:10003000153A000800000000173A0008193A0008B5
:100040002B4C00082B4C00082B4C00082B4C0008B4
:100050002B4C00082B4C00082B4C00082B4C0008A4
:100060002B4C00082B4C00082B4C00082B4C000894
:100070002B4C00082B4C00082B4C00082B4C000884
:100080002B4C00082B4C00082B4C00082B4C000874
:100090002B4C00082B4C00082B4C0008433A00085E
:1000A0002B4C00082B4C00082B4C00082B4C000854
:1000B0002B4C00082B4C00082B4C00082B4C000844
:1000C0002B4C00082B4C00082B4C00082B4C000834
:1000D0002B4C00082B4C00082B4C00082B4C000824
:1000E0005F3A00082B4C00082B4C00082B4C0008F2
:1000F0002B4C00082B4C00082B4C00082B4C000804
:100100002B4C00082B4C00082B4C00082B4C0008F3
:100110002B4C00082B4C00082B4C00082B4C0008E3
:100120002B4C00082B4C00082B4C00082B4C0008D3
:100130002B4C00082B4C00082B4C00082B4C0008C3
:100140002B4C00082B4C00082B4C00082B4C0008B3
:100150002B4C00082B4C00082B4C00082B4C0008A3
:100160002B4C00082B4C00082B4C00082B4C000893
:100170002B4C00082B4C00082B4C00082B4C000883
:100180002B4C00082B4C000800F002F800F058F847
:100190000AA090E8000C82448344AAF10107DA45E2
:1001A00001D100F04DF8AFF2090EBAE80F0013F0DC
:1001B000010F18BFFB1A43F0010318471C7200001F
:1001C0003C720000103A24BF78C878C1FAD85207B0
:1001D00024BF30C830C144BF04680C6070470000C1
:1001E0000023002400250026103A28BF78C1FBD840
:1001F000520728BF30C148BF0B607047662906F020
:100200000187642904F0F686632905F0F4837329D5
:1002100005F0F983002070471FB506F0EEFE05F0EB
:100220004BFC04000020002106F08AFB401C6060AB
:100230000020002106F06EFBE0601FBD10B510BD70
:1002400005F074FD1146FFF7E7FF03F069FA05F0CA
:1002500079FF03B4FFF7F2FF03BC03F016FE0000C2
:1002600032490143324A1160704770B500210023C2
:100270000F22C4781CB32E4C246804F4E064C4F547
:10028000E064C4F30721C1F10404E3B20A414478F5
:100290009C40E1B28478144021430C07210E254C88
:1002A00005786155047804F01F050124AC400578F9
:1002B0006D11AD0005F1E025C5F8004109E00478B5
:1002C00004F01F050124AC401B4D0678761145F85B
:1002D000264070BD194A0A400243154B1B1F1A6085
:1002E000704739B1124A121D12680243104B1B1D90
:1002F0001A6006E00E4A121D126882430C4B1B1D49
:100300001A607047042808D14FF0E021096941F0D4
:1003100004014FF0E022116107E04FF0E02109698C
:1003200021F004014FF0E022116170470000FA054E
:100330000CED00E000E400E080E100E080FFFF1F42
:1003400010B50121080200F01BFE00214FF480705F
:1003500000F016FE10BD30B50246002000235068A4
:10036000F84C20400D790C6844EA05242043506085
:100370009068F54C2040D1E903542C438D682C4300
:100380004D7944EA450420439060D06A20F470001F
:100390000C7D641EE4B2234340EA0350D06230BDBA
:1003A00000210160017141718160C1600161012121
:1003B000017570470021E54A1168E54A1140D0E90E
:1003C00000231A4383681A43C3681A431143E14A5E
:1003D000C2F8041370470021016041608160C16070
:1003E000704721B1826842F00102826003E08268B6
:1003F00022F00102826070470A4600214168D64B14
:1004000019401143416070474162826270470A4659
:100410000021416821F01F0111434160704738B14C
:10042000CA49096841F40001CA4AC2F8041306E047
:10043000C649096821F40001C64AC2F8041370478E
:1004400038B1C249096841F48001C24AC2F80413B4
:1004500006E0BE49096821F48001BE4AC2F80413CF
:100460007047F0B504460D4600200021092D11DD2E
:10047000E068A5F10A0606EB4607072606FA07F12B
:100480008843A5F10A0606EB460603FA06F108437F
:10049000E0600CE0206905EB4507072606FA07F146
:1004A000884305EB450603FA06F108432061072A55
:1004B0000FDA606B561E06EB86071F2606FA07F159
:1004C0008843561E06EB860605FA06F1084360636C
:1004D00022E00D2A0FDA206BD61F06EB86071F26B7
:1004E00006FA07F18843D61F06EB860605FA06F1E1
:1004F0000843206310E0E06AA2F10D0606EB8607D0
:100500001F2606FA07F18843A2F10D0606EB8606C0
:1005100005FA06F10843E062F0BD816841F08041D0
:1005200081607047014600208A6802F480020AB1A7
:10053000012000E00020704721B1826842F480620F
:10054000826003E0826822F480628260704721B199
:10055000826842F00202826003E0826822F00202B6
:100560008260704710B50A4600210023416821F4DB
:100570006041531E41EA4331416010BD21B14268E0
:1005800042F40062426003E0426822F4006242608A
:1005900070470146C86C80B270476C48001D006807
:1005A000704721B1826842F48072826003E0826801
:1005B00022F480728260704721B1826842F4007236
:1005C000826003E0826822F400728260704738B172
:1005D0005E49096841F400515E4AC2F8041306E01E
:1005E0005A49096821F400515A4AC2F80413704765
:1005F000F0B504461546002000220026092911DD29
:10060000E068A1F10A0707EB470C072707FA0CF28D
:100610009043A1F10A0707EB470703FA07F21043DB
:10062000E0600CE0206901EB410C072707FA0CF2AF
:10063000904301EB410703FA07F210432061A06BDE
:10064000C0F30156EF1C06F1010CA7EB0C0707EBFA
:10065000870C1F2707FA0CF29043EF1C06F1010CE0
:10066000A7EB0C0707EB870701FA07F21043A0631B
:10067000F0BD10B50A4600210023816B21F4401122
:10068000531E41EA0351816310BD08B50023009356
:100690000090009B0B440093009B1A6008BD0A4623
:1006A0000021816821F470211143816070470A465E
:1006B0000021816821F440111143816070478168F5
:1006C00041F4800181607047014600208A6802F48D
:1006D00080020AB1012000E00020704721B1426889
:1006E00042F48062426003E0426822F48062426029
:1006F000704721B1426842F48052426003E0426890
:1007000022F480524260704708B5024600200090F3
:10071000009201F12800009B1844009000980068A6
:1007200080B208BD10B50B460021D9B2012404FAED
:1007300001F11AB144680C43446002E044688C4300
:10074000446010BDFFFEFFFCFDF7FFC00423014025
:10075000E030FCFF00200140FFFD3FFF024600208B
:1007600013680B400BB1012000E000207047CA4322
:100770000260704770B502460020002300240B126F
:10078000556801268E4005EA060415681D4015B11E
:100790000CB1012000E0002070BD00220A12D343FA
:1007A00003607047002044490860091D0860091D66
:1007B0000860091D086041483F49143108607047CE
:1007C00000213D498279002A3AD00A46126803681E
:1007D0009A430B461A600A1D126803689A430B1D60
:1007E0001A60027911440A6803681A430A60324A9F
:1007F0000832126803689A432F4B08331A601A1D97
:10080000126803689A432C4B0C331A604279102A01
:100810000ED11A1F126803681A43274B08331A6057
:100820001A1D126803681A43234B0C331A600DE03B
:100830002149427911440A6803681A430A6005E0B5
:10084000027911440A6803689A430A6070470021DC
:10085000016001710C2141710021817170471649BD
:10086000103109680143144A103211607047014683
:100870000020114A143212680A400AB1012000E037
:10088000002070470C491431086070470146002071
:100890000022094B1B6803EA0102074B14331B6853
:1008A0000B4013B10AB1012000E00020704702495B
:1008B0001431086070470000003C0140FFFF7F00DA
:1008C00010B504468C48844208D10121084600F046
:1008D00000FB0021012000F0FCFA5EE08748844222
:1008E00008D10121022000F0F4FA0021022000F0DA
:1008F000F0FA52E08248844208D10121042000F03D
:10090000E8FA0021042000F0E4FA46E07D48844241
:1009100008D10121082000F0DCFA0021082000F0B5
:10092000D8FA3AE07848844208D10121102000F03A
:10093000D0FA0021102000F0CCFA2EE07348844257
:1009400008D10121202000F0C4FA0021202000F06D
:10095000C0FA22E06E48844208D10121402000F014
:10096000B8FA0021402000F0B4FA16E06948844249
:1009700008D10121802000F0ACFA0021802000F095
:10098000A8FA0AE06448844207D10121801500F0EA
:10099000A0FA0021A01500F09CFA10BDF0B50A469F
:1009A00000210023002400BF3DE0012505FA01F3EA
:1009B000156805EA03049C4234D105684F000326FC
:1009C000BE40B543056015794E00B5400668354315
:1009D00005601579012D02D01579022D16D1856893
:1009E0004F000326BE40B543856055794E00B540A3
:1009F000866835438560456801268E40B54345606D
:100A0000456896798E40B6B235434560C5684F005B
:100A10000326BE40B543C560D5794E00B540C668D3
:100A20003543C560491C1029BFD3F0BD4FF6FF7197
:100A300001600021017141718171C171704708B578
:100A40004FF480320092009A0A430092009AC261E9
:100A5000C161009AC261C2690092C269009208BD78
:100A60000246002013690B400BB1012000E000207A
:100A700070470146086980B27047024600205369FA
:100A80000B400BB1012000E000207047014648698F
:100A900080B2704701837047418370470AB1018378
:100AA00000E0418370474161704742694A404261BA
:100AB0007047F0B5002300244D07ED0E02FA05F350
:100AC000CE1000F1200555F826504E07F70E0F26E0
:100AD000BE40B543CF1000F1200646F82750CE1097
:100AE00000F1200555F8265045EA0304CE1000F128
:100AF000200545F82640F0BD0000024000040240F9
:100B000000080240000C02400010024000140240A5
:100B100000180240001C024000200240FA48006811
:100B200040F00100F84908600020F74908310860EA
:100B3000F5480068F5490840F3490860F448091D84
:100B40000860081F006820F48020091F086000204A
:100B5000ED490C31086070470021EB4A921C11707E
:100B600011460870704710B501460022002300208E
:100B70004A11012A02D1E44C236808E0022A03D179
:100B8000E14C7034236802E0DF4C7434236801F0D8
:100B90001F02012494401C400CB1012000E0002001
:100BA00010BD38B5002000900024002500BF312082
:100BB000FFF7D9FF05460098401C00900098B0F55B
:100BC000A06F01D0002DF2D03120FFF7CCFF08B18B
:100BD000012400E00024204638BD01460020CA4A16
:100BE000106820F0F80040EAC10010607047C94961
:100BF000086070470021C44A7032117011700128DA
:100C000002D004280AD104E00121BF4A70321170D9
:100C100005E00521BC4A7032117000E000BF00BF42
:100C20007047BD490860704770B5049C41EA821561
:100C30000126C6EB530645EA0645054345EA046529
:100C4000B14E361D356070BDB249086670478201ED
:100C500042EA0172AC4B84331A607047AD49886632
:100C60007047AC49C864704702460020A64B083361
:100C7000186820F0EC6042EA01031843A24B0833E5
:100C800018607047024600209F4B0833186820F018
:100C9000784042EA010318439B4B083318607047C1
:100CA00001460020984A0832106820F003000843EB
:100CB0001060704794480830006800F00C007047DE
:100CC00001460020904A0832106820F0F0000843E6
:100CD00010607047014600208B4A0832106820F4EB
:100CE000E05008431060704701460020864A0832F1
:100CF000106820F4604040EAC10010607047F0B511
:100D00000021002200240225002602237E4F0837FE
:100D10003F6807F00C0121B1042905D0082937D11B
:100D200005E07E4F076036E07D4F076033E0764F89
:100D30003F1D3F68C7F38056734F3F1D3F6807F064
:100D40003F036EB1764FB7FBF3F7DFF8BCC10CF190
:100D5000040CDCF800C0CCF3881C07FB0CF40CE09E
:100D60006E4FB7FBF3F7DFF8A0C10CF1040CDCF811
:100D700000C0CCF3881C07FB0CF4634F3F1D3F6899
:100D8000C7F301477F1C7D00B4FBF5F7076002E065
:100D9000624F076000BF00BF5B4F08373F6807F036
:100DA000F00109095F4F7A5C0768D7404760564FEA
:100DB00008373F6807F4E051890A5A4F7A5C476860
:100DC000D7408760504F08373F6807F46041490BB0
:100DD000544F7A5C4768D740C760F0BD002100F4EB
:100DE0004072B2F5407F0AD1474A0832116821F4B7
:100DF000F8114D4A02401143434A08321160424AF9
:100E000070321268C0F30B031A433F4B70331A6001
:100E1000704741494439086070473F49403908608C
:100E2000704742490860704739B1374A303212681A
:100E30000243354B30331A6006E0334A30321268D1
:100E40008243314B30331A60704739B12E4A343205
:100E5000126802432C4B34331A6006E02A4A3432BB
:100E600012688243284B34331A60704739B1264ADE
:100E7000383212680243244B38331A6006E0224AA3
:100E8000383212688243204B38331A60704739B1C8
:100E90001D4A4032126802431B4B40331A6006E081
:100EA000194A403212688243174B40331A60704728
:100EB00039B1154A443212680243134B44331A6065
:100EC00006E0114A4432126882430F4B44331A60E1
:100ED000704739B10C4A1032126802430A4B103382
:100EE0001A6006E0084A103212688243064B10333B
:100EF0001A607047E1B1044A143212680243024B8F
:100F000014331A6019E0000000380240FFFFF6FEBB
:100F10001030002400004742800E47420024F400B5
:100F200000127A0000000020FFFCFF0F5C01474226
:100F30005B4A126882435A4B1A60704739B1584A6B
:100F4000121D12680243564B1B1D1A6006E0544ADC
:100F5000121D12688243524B1B1D1A60704739B133
:100F60004F4A0C32126802434D4B0C331A6006E0B4
:100F70004B4A0C3212688243494B0C331A6070475B
:100F800039B1474A103212680243454B10331A6098
:100F900006E0434A103212688243414B10331A6014
:100FA000704739B13E4A3C32126802433C4B3C33F5
:100FB0001A6006E03A4A3C3212688243384B3C33AE
:100FC0001A60704739B1364A403212680243344BD6
:100FD00040331A6006E0324A403212688243304B96
:100FE00040331A60704739B12D4A443212680243C7
:100FF0002B4B44331A6006E0294A4432126882437C
:10100000274B44331A60704739B1254A4C32126875
:101010000243234B4C331A6006E0214A4C321268DB
:1010200082431F4B4C331A60704739B11C4A50320F
:10103000126802431A4B50331A6006E0184A5032C5
:1010400012688243164B50331A60704739B1144A04
:10105000D21F12780243124BDB1F1A7006E0104AAF
:10106000D21F127882430E4BDB1F1A7070470C4858
:101070006030006840F08070094960310860704756
:1010800001460020064A083A12680A400AB10120C7
:1010900000E0002070470249891F08707047000077
:1010A0001438024010B50446F748844208D10121A3
:1010B0008014FFF765FF0021A014FFF761FF16E021
:1010C000F248844208D101210014FFF748FF0021B3
:1010D0002014FFF744FF0AE0ED48844207D10121C4
:1010E000C013FFF73CFF0021E013FFF738FF10BDEE
:1010F00010B50022028802F441520B884C88234329
:101100008C882343CC8823430C8923434C89234375
:101110008C892343CC8923431A430280838B4FF26B
:10112000FF74234083830B8A038210BD2DE9F04FA7
:101130000025022300240127002200269446904621
:101140009146B0F81CA04FF2400B0AEA0B0AA0F837
:101150001CA04FF0020AA0F820A0858BD1F808A0AF
:10116000BAF1020F01D100BF6CE0B1F804A0BAF1EE
:10117000000F01D1012700E00227DFF818A3DAF8F9
:1011800000A00AF4000ABAF1000F09D0DFF804A3A6
:10119000DAF800A02AF4000ADFF8F8B2CBF800A0D1
:1011A000DFF8F0A20AF17C0ADAF800A0CAF3881886
:1011B000DFF8E0A20AF17C0ADAF800A0CAF30279AB
:1011C000DFF8D0A2AAF1040ADAF800A00AF03F0C76
:1011D000DFF8C4A2BAFBFCFA0AFB08FABAFBF9F67C
:1011E000B1F806A0BAF5007F0ED14FEA162A0AEB35
:1011F0008A0A4FEA4A0AD1F808B0BAFBFBFA0AF1A8
:10120000050A1FFA8AF20FE04FEA471AB6FBFAFA0C
:101210000AEB8A0A4FEA4A0AD1F808B0BAFBFBFA8D
:101220000AF1050A1FFA8AF24FF00A0AB2FBFAF233
:1012300002F00104A2EB040ACAF34F034FF6FF7A4F
:101240000AEA0424022B01DBFF2B01DD0223002428
:10125000B1F806A04AEA040A4AEA030AA0F820A064
:10126000B1F804A0B1F80CB04AEA0B0AB1F802B028
:101270004AEA0B0AB1F800B04AEA0B0A4AF4006ADB
:101280004AEA05058583BDE8F08F00210180418091
:101290008180C180018141818181C18107210182D9
:1012A00070470021018041808180C18002218160DE
:1012B00000218181704721B1028842F04002028002
:1012C00004E002884FF6BF731A400280704721B1D4
:1012D000828B42F48062828304E0828B4FF6FF337C
:1012E0001A408283704702884FF2FF731A400280CF
:1012F00002880A4302807047B1F5804F04D102880A
:1013000042F48042028004E002884BF6FF731A40E8
:10131000028070474FF6FF62914204D0028842F487
:101320008072028004E002884FF6FF631A40028058
:10133000704721B1828842F00402828004E08288F2
:101340004FF6FB731A408280704721B1828842F0C9
:101350001002828004E082884FF6EF731A40828088
:10136000704730B500220023848B4FF240052C409B
:10137000848302240484828B0C88B4F5007F01D01E
:101380000C8814B94FF4807308E00C88B4F5407FE2
:1013900003D00C88B4F5807F00D100238C888D8920
:1013A0002C434D882C431C4344F400642243828325
:1013B00030BD0146888970478181704721B102881C
:1013C00042F40052028004E002884DF6FF731A4096
:1013D00002807047018841F48051018070470246C5
:1013E0000020012901D0108B00E0908A704701464F
:1013F000088A70471AB183880B43838002E0838890
:101400008B438380704730B5002400230C110125E5
:10141000A540ABB21AB185881D43858002E085885E
:101420009D43858030BD0246002013890B400BB1DF
:10143000012000E000207047CA4302817047F0B5E8
:101440000246002000240023002501F00F0701269A
:10145000BE40B4B20B1101269E40B3B2968806EA94
:1014600003051689264016B10DB1012000E00020C9
:10147000F0BD10B5002201F00F040123A3409AB281
:10148000D343038110BD000000300140003800400C
:10149000003C00400838024000127A0010B50121DB
:1014A0008803FFF76DFD00214FF48040FFF768FDD2
:1014B00010BD1A490860704730B500228B071C0F19
:1014C0000F2303FA04F2154B08338C1053F8243021
:1014D0009343124C08348D1044F8253023468C1069
:1014E00053F824308C07240F00FA04F423430B4CE8
:1014F00008348D1044F8253030BD09490860704724
:10150000084908607047002004492031096801F447
:10151000807109B1012000E00020704700380140CF
:10152000DC0027420004274210B50446FE488442EE
:1015300008D101210846FFF723FD00210120FFF714
:101540001FFD9DE0B4F1804F08D101210846FFF74F
:1015500006FD00210120FFF702FD91E0F3488442DF
:1015600008D101210220FFF7FAFC00210220FFF739
:10157000F6FC85E0EE48844208D101210420FFF703
:10158000EEFC00210420FFF7EAFC79E0E948844200
:1015900008D101210820FFF7E2FC00210820FFF715
:1015A000DEFC6DE0E448844208D101211020FFF701
:1015B000D6FC00211020FFF7D2FC61E0DF48844216
:1015C00008D101212020FFF7CAFC00212020FFF7CD
:1015D000C6FC55E0DA48844208D101210220FFF719
:1015E000CFFC00210220FFF7CBFC49E0D548844224
:1015F00009D101210804FFF7C3FC00214FF480301A
:10160000FFF7BEFC3CE0D048844209D101214804E8
:10161000FFF7B6FC00214FF40030FFF7B1FC2FE0DC
:10162000CA48844209D101218804FFF7A9FC00219E
:101630004FF48020FFF7A4FC22E0C548844208D183
:1016400001214020FFF78BFC00214020FFF787FCA1
:1016500016E0C048844208D101218020FFF77FFCBA
:1016600000218020FFF77BFC0AE0BB48844207D1C1
:1016700001218015FFF773FC0021A015FFF76FFC17
:1016800010BD00220288A84B98420ED0AC4B984265
:101690000BD0B0F1804F08D0A44B984205D0A44B9A
:1016A000984202D0A34B984204D14FF68F731A4050
:1016B0004B881A43A04B984207D0A04B984204D0C5
:1016C0004FF6FF431A400B891A4302804B68C362EE
:1016D0000B880385944B984202D0994B984201D1D4
:1016E0008B7A03860123838270474FF0FF3141607C
:1016F00000210180018141808172704701858282D1
:1017000070470A46002101884FF68F731940114334
:101710000180704741627047C16270470146486A64
:1017200070470146088D704721B1028842F00202DD
:10173000028004E002884FF6FD731A400280704771
:1017400021B1028842F00402028004E002884FF6D0
:10175000FB731A400280704721B1028842F0800278
:10176000028004E002884FF67F731A4002807047BF
:1017700002884FF6F7731A40028002880A430280FB
:10178000704702884FF6FF431A40028002880A43DE
:101790000280704721B1028842F00102028004E019
:1017A00002884FF6FE731A400280704770B500241D
:1017B00000220023058C4FF6FE7635400584028C0E
:1017C0008388048B4FF68F752C40B51E2C400D88F6
:1017D0002C43751E2A408D892A434D882A43524D39
:1017E000A84202D0564DA84213D14FF6F7752A40B1
:1017F000CD892A434FF6FB752A408D882A434FF640
:10180000FF652B404FF6FF552B400D8A2B434D8A29
:101810002B43838004838D684563028470BD70B55B
:10182000002400220023058C4FF6EF763540058416
:10183000028C8388048B48F6FF752C404FF6FF45D9
:101840002C400D884FF6FF7606EA05252C434FF60F
:10185000DF752A408D8906EA05152A434D8806EA78
:1018600005152A43304DA84202D0354DA8421DD15E
:101870004FF67F752A40CD894FF6FF7606EA0515AB
:101880002A434FF6BF752A408D8806EA05152A437C
:101890004FF6FF352B404FF2FF752B400D8A06EABD
:1018A00085052B434D8A06EA85052B4383800483F7
:1018B0008D688563028470BD70B50024002200230A
:1018C000058C4FF6FF6635400584028C8388848B37
:1018D0004FF68F752C404FF6FC752C400D882C432D
:1018E0004FF6FF552A408D894FF6FF7606EA05250B
:1018F0002A434D8806EA05252A430B4DA84202D00B
:101900000F4DA84238D14FF2FF752A40CD894FF6CE
:10191000FF7606EA05252A434FF6FF352A408D88D3
:1019200006EA05252A4319E00000014000040040B2
:1019300000080040000C004000100040001400406F
:1019400000040140004001400044014000480140C3
:1019500000180040001C0040002000404EF6FF75BB
:101960002B404DF6FF752B400D8A06EA05152B43DB
:101970004D8A06EA05152B43838084838D68C563F1
:10198000028470BD70B5002200230024058C4EF641
:10199000FF7635400584038C8488828B48F6FF757A
:1019A0002A404FF6FF452A400D884FF6FF7606EA9B
:1019B00005252A434DF6FF752B408D8906EA05352E
:1019C0002B434D8806EA05352B43FE4DA84202D035
:1019D000FD4DA84208D14BF6FF752C400D8A4FF6FD
:1019E000FF7606EA85152C43848082838D68056422
:1019F000038470BD002101804180818081608181EC
:101A0000C18101824182704770B5034600200024E5
:101A10001846183001258D40ACB21D8CA5431D849D
:101A200009B108290AD100EB610005684FF68F76ED
:101A3000354005600568154305600FE00D1FC5F3CF
:101A40004E052844056848F6FF7635400560056870
:101A50004FF6FF7606EA02263543056070BD416306
:101A6000704781637047C1637047016470470A46DD
:101A70000021018B4FF68F7319401143018370478A
:101A80000A460021018B48F6FF7319404FF6FF7399
:101A900003EA02231943018370470A460021818B20
:101AA0004FF68F7319401143818370470A46002116
:101AB000818B48F6FF7319404FF6FF7303EA022348
:101AC0001943818370470A460021018B4FF6F77353
:101AD00019401143018370470A460021018B4FF2E0
:101AE000FF7319404FF6FF7303EA02231943018382
:101AF00070470A460021818B4FF6F7731940114356
:101B0000818370470A460021818B4FF2FF73194091
:101B10004FF6FF7303EA02231943818370470A4695
:101B20000021018B4FF6FB7319401143018370476D
:101B30000A460021018B4FF6FF3319404FF6FF7321
:101B400003EA02231943018370470A460021818B6F
:101B50004FF6FB7319401143818370470A460021F9
:101B6000818B4FF6FF3319404FF6FF7303EA0223D0
:101B70001943818370470A460021018B4FF67F731A
:101B800019401143018370470A460021018BC1F3BC
:101B90000E014FF6FF7303EA0223194301837047D6
:101BA0000A460021818B4FF67F73194011438183D0
:101BB00070470A460021818BC1F30E014FF6FF7377
:101BC00003EA02231943818370470A460021018CEE
:101BD0004FF6FD7319401143018470470A460021F6
:101BE000018C4FF6F77319401143018470470A4680
:101BF0000021018C4FF6DF7319404FF6FF7303EAA3
:101C000002131943018470470A460021018C4FF6E4
:101C10007F7319404FF6FF7303EA021319430184DF
:101C200070470A460021018C4FF6FF5319404FF6CA
:101C3000FF7303EA02231943018470470A46002117
:101C4000018C4FF2FF7319404FF6FF7303EA022332
:101C50001943018470470A460021018C4DF6FF7339
:101C600019404FF6FF7303EA0233194301847047AA
:101C700030B5002301248C40A3B2048C9C4304841F
:101C8000048C02FA01F5ADB22C43048430BD30B5AA
:101C9000002304248C40A3B2048C9C430484048C51
:101CA00002FA01F5ADB22C43048430BD828B4FF2B1
:101CB000FF331A408283828B4FF6FF7303EA0123BE
:101CC0001A4382837047F0B50C4615460021002266
:101CD0000026078C4EF6FF7C07EA0C070784818BF1
:101CE000028C4FF6FF7707EA043640F6FF4739408B
:101CF0004FF6FF7707EA052739434FF6FF7707EAE4
:101D00000337394345F6FF773A4046F480573A4364
:101D100081830284F0BD828B4FF6F3731A40828375
:101D2000828B0A4382837047F0B50C46154600212A
:101D300000220026078C4FF6FF6C07EA0C07078489
:101D4000818B028C4FF6FF7707EA04264FF60C775B
:101D500039404FF6FF7707EA03172F4339434FF215
:101D6000FF573A4046F480773A4381830284F0BDBE
:101D7000028B4FF2FF331A400283028B4FF6FF7340
:101D800003EA01231A4302837047F0B50C46154657
:101D9000002100220026078C4FF6EF7C07EA0C0793
:101DA0000784018B028C4FF6FF7707EA041640F692
:101DB000FF4739404FF6FF7707EA033739434FF6BD
:101DC000FF7703E0000001400004014007EA052717
:101DD00039434FF65F773A4046F010073A430183A4
:101DE0000284F0BD028B4FF6F3731A400283028B1C
:101DF0000A4302837047F0B50C46154600210022C5
:101E0000068C4FF6FE773E400684018B028C4FF61F
:101E10000C7631407E1C06EA03162E4331434FF602
:101E2000F576324044F00106324301830284F0BD6E
:101E300070B505460C46208850B92389A288618870
:101E40002846FFF7D8FFE1882846FFF7CBFF25E0BB
:101E5000208804280AD12389A28861882846FFF7B0
:101E600094FFE1882846FFF783FF17E020880828C1
:101E70000AD12389A28861882846FFF755FFE188A7
:101E80002846FFF748FF09E02389A2886188284691
:101E9000FFF719FFE1882846FFF708FF70BD002112
:101EA00001804180012181800021C1800181704732
:101EB0002DE9F04105460C4600260127608808B947
:101EC000022600E00026A088012801D1022700E0B8
:101ED00001272088A0B92389A28861882846FFF7B6
:101EE0008AFFE1882846FFF77DFF23893A4631467D
:101EF0002846FFF74AFFE1882846FFF739FF13E03D
:101F00002389A28861882846FFF73FFFE188284699
:101F1000FFF72EFF23893A4631462846FFF76BFF2D
:101F2000E1882846FFF75EFFBDE8F0810146486B77
:101F300070470146886B70470146C86B7047014681
:101F4000086C70470A884B881A438B881A43CB88E1
:101F50001A430B891A434B891A438B891A43A0F8F9
:101F6000442070470021018041808180C18001812F
:101F700041818181704731B1B0F8442042F4004280
:101F8000A0F8442005E0B0F84420C2F30E02A0F807
:101F90004420704721B1828842F00402828004E02C
:101FA00082884FF6FB731A408280704721B1828885
:101FB00042F00102828004E082884FF6FE731A40EC
:101FC000828070471AB183890B43838102E0838941
:101FD0008B43838170478182704702460020138AB9
:101FE0000B400BB1012000E000207047CA43028281
:101FF000704730B50246002000230024158A05EA08
:102000000103958905EA010413B10CB1012000E038
:10201000002030BDCA430282704741EA0203A0F8A3
:10202000483070471AB183890B43838102E083896A
:102030008B438381704721B1828842F008028280FD
:1020400004E082884FF6F7731A4082807047018956
:102050004FF6F8721140018170470A46002101894C
:102060004FF68F73194011430181704730B5044614
:102070000D4629462046FFF7F0FF208940F0070073
:10208000208130BD2DE9F04104460D4616461F461D
:10209000602D06D13B46012231462046FFF775FEF2
:1020A00005E03B46012231462046FFF7A4FE2946C3
:1020B0002046FFF7D2FF208940F007002081BDE8CD
:1020C000F08130B50C4600210189C9B24FF6FF7589
:1020D00005EA0325154325432943018130BD2DE938
:1020E000F04105460E4617469846002443463A46B8
:1020F00031462846FFF7E5FF2C894FF6F87004407B
:1021000044F007044FF68F70044044F070042C81B3
:10211000BDE8F081F0B504460D4616461F463B4625
:10212000324629462046FFF7CCFF208940F4804004
:102130002081F0BD82884FF68F731A40828082889A
:102140000A438280704702894FF6F8731A40028171
:1021500002890A430281704702894FF67F731A4051
:10216000028102890A4302817047F0B50C46154688
:102170001E460021002200230189028B038C4FF6AA
:10218000F877394021434FF6FC473A4040F20117B7
:102190003A434FF6DD773B404FF6FF7707EA0617E5
:1021A0002F433B43018102830384F0BD21B1828828
:1021B00042F08002828004E082884FF67F731A40EA
:1021C00082807047A0F850107047000010B5044698
:1021D000F748844208D101211020FEF7D1FE0021EA
:1021E0001020FEF7CDFE3EE0F248844209D10121E5
:1021F0004804FEF7B4FE00214FF40030FEF7AFFEB6
:1022000031E0ED48844209D101218804FEF7A7FEA0
:1022100000214FF48020FEF7A2FE24E0E74884422C
:1022200009D10121C804FEF79AFE00214FF40020D5
:10223000FEF795FE17E0E248844209D10121080526
:10224000FEF78DFE00214FF48010FEF788FE0AE0B5
:10225000DC48844207D101212020FEF791FE0021B5
:102260002020FEF78DFE10BD2DE9FF4705460E46E6
:102270000024A14600BFA046B08900B100BF2C8A4F
:1022800024F44054F08804432C82AC8941F20C6061
:102290008443B08831890843718908430443AC8181
:1022A000AC8A24F44074B0890443AC826846FEF7DB
:1022B00026FDBF48854202D0C248854202D1DDF8E2
:1022C0000C9001E0DDF80890A88900F4004040B1CE
:1022D00009EBC90000EB091031684900B0FBF1F7C8
:1022E00007E009EBC90000EB091031688900B0FB79
:1022F000F1F76420B7FBF0F004012009642101FB31
:102300001078A88900F4004040B1322000EBC800EA
:10231000B0FBF1F000F00700044308E0322000EBCE
:1023200008106421B0FBF1F000F00F0004432C8191
:10233000BDE8FF874FF41651016000218180C18004
:1023400001810C21418100218181704710B5024635
:102350000020108A20F470600B884C8823438C88FE
:102360002343CC8823431843108210BD00210180F1
:1023700041808180C180704721B1828942F400523E
:10238000828104E082894DF6FF731A408281704792
:10239000028B02F47F420283028B0A43028370475E
:1023A00021B1828942F40042828103E08289C2F332
:1023B0000E028281704721B1828A42F400628282D9
:1023C00004E0828A4FF2FF731A4082827047C1F3A1
:1023D00008028280704701468888C0F30800704771
:1023E000028A4FF6F0731A400282028A0A4302827E
:1023F000704721B1828942F00202828104E0828921
:102400004FF6FD731A408281704782894FF2FF7345
:102410001A40828182890A4382817047028A4FF67C
:10242000DF731A400282028A0A430282704721B196
:10243000028A42F48042028204E0028A4BF6FF7371
:102440001A4002827047818941F001018181704701
:1024500021B1828A42F00802828204E0828A4FF629
:10246000F7731A4082827047028BD2B20283028BCA
:1024700042EA01220283704721B1828A42F020029F
:10248000828204E0828A4FF6DF731A4082827047AC
:1024900021B1828A42F01002828204E0828A4FF6E1
:1024A000EF731A4082827047828A4FF6FB731A409C
:1024B0008282828A0A438282704721B1828A42F0F4
:1024C0000202828204E0828A4FF6FD731A40828201
:1024D00070471AB1838A0B43838202E0838A8B435D
:1024E00083827047F0B503460024002600250020B3
:1024F00040F66A17B94200D100BF1846C1F3421432
:1025000001F01F06012707FA06F5012C01D10C3056
:1025100004E0022C01D1103000E014301AB1076839
:102520002F43076002E00768AF430760F0BD024633
:102530000020B1F5007F00D100BF13880B400BB124
:10254000012000E00020704701F40072B2F5007F26
:1025500000D100BFCA430280704770B50246002414
:1025600000230025002040F66A16B14200D100BFCA
:10257000C1F3421501F01F03012606FA03F3012DF2
:1025800002D19689334006E0022D02D1168A3340EB
:1025900001E0968A33400C12012606FA04F41688EC
:1025A000344013B10CB1012000E0002070BD0000E8
:1025B000001001400044004000480040004C004032
:1025C000005000400014014010B50022002340F6E6
:1025D0006A14A14200D100BF0A1201249440A3B2A0
:1025E000DC43048010BD000010280AD2102908D254
:1025F000F74A32F8102001238B401A43F44B23F89A
:102600001020704710280AD2102908D2F04A32F858
:10261000102001238B409A43ED4B23F81020704784
:102620000246102A0CD210290AD2E94830F81200CA
:1026300001238B40184008B1012070470020FCE7BF
:102640000020FAE710B52021E14802F0D9FE10BDC4
:1026500010B54FF0FF322021DD4802F0C9FE10BD59
:1026600010280AD2102908D2DA4A32F810200123A1
:102670008B401A43D74B23F81020704710280AD2FA
:10268000102908D2D34A32F8102001238B409A43F4
:10269000D04B23F8102070470246102A0CD2102984
:1026A0000AD2CC4830F8120001238B40184008B100
:1026B000012070470020FCE70020FAE710B5202138
:1026C000C44802F09DFE10BD10B54FF0FF3220212E
:1026D000C04802F08DFE10BDBF48D0F8C002B0F572
:1026E000957F01DD012070470020FCE71FB5BA4847
:1026F000D0F8C002401CB849C1F8C0020846D0F862
:10270000C002A1F5805101EB00109DE81E001EC023
:102710001FBDB148D0F8C002401C08B90120704765
:102720000020FCE71FB5AC49D1F8C012AB4A02EB60
:102730000114D4E90031D4E90224CDE90224CDE921
:102740000031A549D1F8C012491EA34AC2F8C012EF
:102750009DE81E0080E81E001FBD014605290CD221
:10276000DFE801F0030507090C0001207047002095
:10277000FCE70320FAE70220F8E700BF0420F5E7B2
:10278000014605290CD2DFE801F0030507090C001A
:10279000022070470320FCE70120FAE70020F8E759
:1027A00000BF0420F5E7014605290CD2DFE801F05F
:1027B000030507090C00032070470220FCE70020F6
:1027C000FAE70120F8E700BF0420F5E72DE9F04122
:1027D00005460E462A4633460020002100BF1CE075
:1027E000002117E0171A002F01DBBC4601E0C7F1FA
:1027F000000C5C1A002C01DBA04601E0C4F10008CB
:10280000C444DFF8DC8108EB002808EB0118C8F8A5
:1028100000C0491C0829E5DB401C0828E0DB082033
:102820001EE0002119E0171A002F01DBBC4601E071
:10283000C7F1000CACF1010C5C1A002C01DBA046C6
:1028400001E0C4F10008C444DFF8948108EB0028DB
:1028500008EB0118C8F800C0491C0829E3DB401C3C
:102860001028DEDB08201EE0082119E0171A002FCF
:1028700001DBBC4601E0C7F1000C5C1A002C01DB57
:10288000A04601E0C4F10008C444ACF1020CDFF83A
:10289000508108EB002808EB0118C8F800C0491C5B
:1028A0001029E3DB401C1028DEDB00201EE008219D
:1028B00019E0171A002F01DBBC4601E0C7F1000C3C
:1028C0005C1A002C01DBA04601E0C4F10008C444FE
:1028D000ACF1010CDFF8088108EB002808EB0118C7
:1028E000C8F800C0491C1029E3DB401C0828DEDBC7
:1028F000002005E0002100E0491C1029FCDB401C01
:102900001028F7DB002011E000210CE0344C04EB30
:10291000002404EB01146060314C04EB002404EB50
:102920000114A160491C1029F0DB401C1028EBDBCE
:10293000BDE8F0810FB506990198884214D1079936
:102940000298884205DDDDE90601FFF769FE04B063
:1029500000BD07990298884204DADDE90101FFF71A
:102960005FFEF4E70020F2E702990798884213D14E
:1029700006990198884204DDDDE90601FFF78CFE27
:10298000E5E706990198884204DADDE90101FFF7DD
:1029900083FEDCE70020DAE70020D8E7F0B58CB052
:1029A00006460F4600244FF4FA750D4800EB06204A
:1029B00000EB071C9CE80F00FFF798FE01E108A858
:1029C000FFF7B0FE01208DF82C00089850B9F8E010
:1029D000EC1000200C1100202C2100202C110020D4
:1029E000EC0000204FF4FA7500246EE034B1012CA5
:1029F00019D0022C29D0032C51D13BE00A980F2882
:102A000000DB61E0FA49099801EB00210A98401CBB
:102A100001EB0011D1E901030A68C968CDE906316B
:102A2000CDE904203BE00A98002800DC4CE0F049A6
:102A3000099801EB00210A98401E01EB00130FCB0F
:102A4000CDE90623CDE9040129E009980F2800DB30
:102A50003AE00998401CE64901EB00200A9900EB96
:102A60000111D1E90023D1E90201CDE90423CDE927
:102A7000060114E00998002800DC25E00998401EB2
:102A8000DB4901EB00200A9900EB0113D3E90102B5
:102A90001968DB68CDE90623CDE9041000BF00BF4B
:102AA00004A80FC88DE80F0008A80FC8FFF742FF61
:102AB00048B90498A84200DA049D9DF81C0010B99A
:102AC00001208DF81C0000BF641C042C8EDBB5F5C2
:102AD000FA7F00D175E0681C0899814200D170E04E
:102AE000681CC34A099902EB01210A9A01EB021101
:102AF0000860002462E034B1012C16D0022C26D0EC
:102B0000032C4BD138E00A980F2800DB55E0B84978
:102B1000099801EB00210A98401C01EB00130FCB30
:102B2000CDE90623CDE9040138E00A98002800DC4D
:102B300043E0AF49099801EB00210A98401E01EBE0
:102B400000130FCBCDE90623CDE9040126E0099857
:102B50000F2800DB31E00998401CA54901EB00205B
:102B60000A9900EB0113D3E901211868DB68CDE96C
:102B70000613CDE9040211E00998002800DC1CE0EE
:102B80000998401E9A4901EB00200A9900EB0113B5
:102B90000FCBCDE90623CDE9040100BF00BF04A897
:102BA0000FC88DE80F0008A80FC8FFF7C3FE18B9BB
:102BB00004A80FC8FFF79AFD00BF641C042C9ADB21
:102BC00000BFFFF7A6FD00283FF4F9AE0CB0F0BD42
:102BD0002DE9FF4F0024002500260027A046A1462E
:102BE000A246A3468348006840B98348006828B9D4
:102BF0008248007810B90120804908708048007828
:102C000030B38048007850B97A48006800B37949F9
:102C10000968481E78490968FFF722FD23E07948D2
:102C20000078012806D17448016872480068FFF7EF
:102C300017FD18E07348007803280AD16E48006831
:102C400030B16D480068411E6A480068FFF7CCFC4F
:102C500009E06C480078022805D16748016865489A
:102C60000068FFF7C1FC6848007810B36548007839
:102C700030B9614801685F480068FFF7F1FC27E060
:102C80006048007801280AD15A48006888B159493B
:102C90000968481E58490968FFF7E2FC18E05948DE
:102CA0000078032806D15448016852480068FFF7AD
:102CB0009BFC0DE053480078022809D14E4800687B
:102CC00030B14D480068411E4A480068FFF78CFC4F
:102CD0004E48007830B34B48007830B94648016818
:102CE00044480068FFF780FC27E046480078012848
:102CF0000AD141480068A8B13F480068411E3D48DC
:102D00000068FFF771FC18E03E48007803280AD1FC
:102D10003848006830B137490968481E36490968A3
:102D2000FFF79EFC09E037480078022805D13248B9
:102D3000016830480068FFF793FC3248007830B1F2
:102D4000012818D002282AD0032861D13BE0294865
:102D5000066829480068471C2648006800F10108F9
:102D60002548D0F8009023480068A0F1010A2248C5
:102D7000D0F800B04DE01F4806681F480068471EA5
:102D80001C480068A0F101081B48D0F800901948C1
:102D9000006800F1010A1848D0F800B039E0154881
:102DA0000068461C144807681248D0F80080124892
:102DB0000068A0F101090F48D0F800A00E48006893
:102DC00000F1010B25E00B480068461E0A48076821
:102DD0000848D0F800800848006800F1010905485B
:102DE000D0F800A004480068A0F1010B11E00FE04A
:102DF000EC000020880000208C00002084000020CF
:102E0000910000208500002092000020900000200A
:102E100000BF00BFFE480078A8B9FE48FE49096817
:102E200000EB0120FD49096800EB01100068F94939
:102E300001EB062101EB07110968884203DD002040
:102E400004B0BDE8F08FF6480078C8B9F148F249FF
:102E5000096800EB0120F149096800EB01100068E6
:102E6000EC4901EB082101EB09110968884207DDF3
:102E7000EC480078FFF784FCEA4908700120DFE79E
:102E8000E9480078C8B9E348E349096800EB012044
:102E9000E249096800EB01100068DE4901EB0A21F4
:102EA00001EB0B110968884207DDDE480078FFF767
:102EB0007AFCDC4908700220C2E7D548007868B186
:102EC000D748007850B1D848007838B1D548007854
:102ED000FFF743FCD34908700320B1E7CD48CE4942
:102EE000096800EB0120CD49096800EB011000687A
:102EF00000287CD0CB480078B8BBC648C6490968D2
:102F000000EB0120C549096800EB01100168C148C8
:102F1000C14A126800EB0222C0480068401E02EB62
:102F200000100068814220DDBA48BB49096800EB07
:102F30000121BA480068401E01EB0012D2E90131BC
:102F40001068D268CDE9013103920090B148B249CE
:102F5000096800EB0120B149096800EB011C9CE8FD
:102F60000F00FFF7E7FC002874D0AE480078012876
:102F700031D1A848A849096800EB0120A749096890
:102F800000EB01100268A348A349096800EB012186
:102F9000A2480068401C01EB0010006882421ADD64
:102FA0009C489D49096800EB01219C480068401C31
:102FB00001EB00130FCB8DE80F0096489649096886
:102FC00000EB01209549096800EB011C9CE80F000B
:102FD000FFF7B0FCF0B393480078022833D18D4856
:102FE0008D49096800EB01208C49096800E078E010
:102FF00000EB0110016888480068401E854A02EB1A
:103000000020864A126800EB0210006881421ADD37
:1030100081480068401E7F4901EB00207F49096814
:1030200000EB01130FCB8DE80F007A487A4909684D
:1030300000EB01207949096800EB011C9CE80F00B6
:10304000FFF778FC30B177480078032840D1714809
:10305000714900E034E0096800EB01206F4909681C
:1030600000EB01106B4A01686B480068401C02EBE2
:1030700000206A4A126800EB02100068814227DDD6
:10308000644965480068401C01EB002063490968F9
:1030900000EB0113D3E901021968DB68CDE90223D3
:1030A000CDE900105B485C49096800EB01205B49F1
:1030B000096800EB011C9CE80F00FFF73BFC38B9E6
:1030C00058480078FFF749FB564908700320B7E6D7
:1030D0005248016850480068FFF760FCFFF778FD30
:1030E000AEE65248007880F001005049087008466A
:1030F0000078C8B107210846FFF768FB002409E003
:10310000002504E029462046FFF748FC6D1C102DE1
:10311000F8DB641C102CF3DB42480078FFF71DFB42
:103120004049087003208BE600210846FFF74EFB5C
:103130003A48016838480068FFF730FC39480078A1
:10314000FFF70BFB37490870032079E610B52DED2A
:10315000068B374800683749096888421ADD3648C7
:10316000006836490968884214DD334800683049F0
:103170000968411A32480068324A1268801A081AEF
:10318000314908600846006830490968401A3049EA
:1031900008603CE0264800682649096888420FDD3F
:1031A0002848006822490968401A400026490860FA
:1031B0000846006825490968401A2549086026E044
:1031C0001D4800681D49096888420FDD1A480068DB
:1031D0001B490968401A40001B49086008460068FE
:1031E0001A490968401A1A49086010E01048006836
:1031F0001049096888420ADA0F4800680F490968CF
:10320000884204DA0020104908601149086021E072
:1032100090000020EC000020880000208C0000209E
:1032200092000020850000209100002087000020EF
:10323000C400002010000020C8000020140000205E
:1032400024000020200000205400002068000020FE
:1032500058000020FB480068FB490860FB480068F4
:10326000FB490860FB480068E8BBFB48006803F0C6
:1032700054FC41EC1A0BF94890ED000B53EC102B69
:1032800051EC1A0B03F060FC41EC180BF448006899
:1032900003F043FC41EC1A0BF24890ED000B53ECA9
:1032A000102B51EC1A0B03F04FFC41EC190B53ECB3
:1032B000182B03F05BFBEC4A03C2E9480068EB49BA
:1032C0000860E148006803F028FC41EC190BE6486F
:1032D00090ED000B53EC102B51EC190B03F032FD69
:1032E00041EC180B00E018E003F0E8FBD649086059
:1032F000D748006803F011FC41EC190BDA4890ED57
:10330000000B53EC102B51EC190B03F02FFB41EC8D
:10331000180B03F0D3FBCE490860CB48006801F0DE
:10332000FEF8CB48006801F015F9BDEC068B10BD26
:1033300010B50446CEA000F0E9FE0020C1490860A7
:10334000C2490860204600F0FAFB10BD70B5044683
:103350000D461646C8A000F0D9FEBB48006801F033
:10336000DEF8BB48006801F0F5F8204600F0E7FB06
:1033700070BD70B506460C461546BFA000F0C6FEEF
:10338000B0480460B1480560304600F0D8FB70BD1D
:103390002DE9F04704460D4616461F4601F0DFF9B9
:1033A00080460020AB49086014E001F0D8F9B34929
:1033B000086001F0CBF9B249086001F0D0F9201A99
:1033C00000EB08094946AFA001F09EFD9D4805604D
:1033D0009E48066001F0C3F9A0EB0800A042E4DBC0
:1033E00027B9002097490860984908600120994949
:1033F0000860BDE8F08770B506460C461546A8A0E3
:1034000000F084FE012093490860204601F087F80F
:10341000684201F09FF800208E490860304600F0B5
:103420008EFB70BD70B506460C4615469EA000F09A
:103430006DFE84480460684284490860304600F0AC
:103440007EFB70BD2DE9F04107460C4615469848B5
:10345000066801207F490860012C1AD113E092A070
:1034600000F054FE92480068831B32469048016881
:1034700090A001F049FD684260437249086005FB75
:1034800004F0724908608A480068801BB842E6DB95
:103490001BE0601CC8B913E081A000F037FE84482F
:1034A0000068831B32468248016882A001F02CFD2F
:1034B000684260436349086005FB04F063490860A3
:1034C0007B480068801BB842E6DC00205D4908604C
:1034D0005E490860BDE8F08170B504460D4672A0F3
:1034E00000F014FE01F036F901F03DF900206349C7
:1034F00008606349086001205649086010E03C22DA
:1035000011460020FFF78EFF5C480068744988422E
:1035100003DD74A000F0FAFD02E074A000F0F6FDF7
:10352000564800686E498842E9DC554800684942BF
:103530008842E4DB5CA000F0E9FD0020454908601A
:10354000404908604149086070BD70B504460D46A9
:1035500053A000F0DBFD01F0FDF801F004F90020BC
:10356000464908604649086001203A49086004E07D
:103570003C2211460020FFF73EFF40480068B0F5AE
:10358000966FF5DB3E48006810F5966FF0DC002082
:10359000304908602B4908602C49086070BD2DE94E
:1035A000F04104460D463648066834480768012055
:1035B0002849086007E03AA000F0A8FD214804600F
:1035C0006842224908602D480068C01B40F27E41D5
:1035D0008842F0DB2A480068301A8842EBDB002082
:1035E0001C4908601749086018490860BDE8F08167
:1035F0002DE9F04104460D46214806681F4807683A
:1036000001201449086007E027A000F07FFD604218
:103610000C4908600D48056019480068801B40F29D
:103620007E418842F0DB15480068381A8842EBDB9F
:103630000020084908600349086004490860BDE8A3
:10364000F0810000740000204C0000207800002071
:10365000500000207C000020580000203000002096
:103660005400002028000020600000206800002096
:1036700053544F50000000004657440040000020C3
:1036800044000020456E636F64657220636F756E41
:103690007473206C6566743A2025640D0A0000007E
:1036A00052494754000000004C45465400000000B9
:1036B000D4000020616E676C653A2025640963754B
:1036C00072416E676C653A20256409616E676C65AE
:1036D0002D637572416E676C653A2025640D0A0092
:1036E000B4FBFFFF54495453000000004153530002
:1036F00010B58148006801280FD101F09EF901F052
:10370000BFF801F0D1F8FFF721FD01F028F87B495F
:10371000086001F01BF87A49086010BD70477047D7
:103720002DED048BFA2400F0C1F900F03BFA00F013
:103730009DFA4FF4165000F003FB00F0E1FD00F09D
:10374000E8FE00F0B7FF00F02FFF01F017F8A0002F
:10375000FFF7EEFD6BA000F0D9FC002510E001F0B2
:10376000A3F86A4800686A4909680844674908601C
:1037700068480068684909680844664908606D1C23
:10378000B5F57A7FEBDB614800684FF47A7190FB06
:10379000F1F05E4908605F4800684FF47A7190FB71
:1037A000F1F05C4908605948006803F0B6F941EC53
:1037B000190B9FED5A0B53EC102B03F0C5F941EC9C
:1037C000180B03F07BF9574908605248006803F072
:1037D000A4F941EC190B9FED510B53EC102B03F0A6
:1037E000B3F941EC180B03F069F94F4908604FA099
:1037F00000F08CFC4FA000F089FC01203E490860DD
:1038000079E049E04DA001F07FFB4148006845495F
:103810000968884209DD40480068434909688842D0
:1038200003DD48A000F072FC22E0394800683D4901
:103830000968884203DD45A000F068FC18E03648BE
:10384000006839490968884203DD42A000F05EFC47
:103850000EE02F48006833490968884208DA2E488C
:10386000006831490968884202DA3CA000F04EFC49
:103870003C4802683C4801683CA001F045FB43A07D
:1038800001F042FB01232246214646480068FFF72B
:103890007FFD45A001F038FB3248006849490968BE
:1038A0008842AFDB30480068474909688842A9DB95
:1038B00046A001F029FB4DA000F028FC00204D4956
:1038C00008604D4908604FF47A70FFF731FD3222ED
:1038D0004FF0FF314948FFF7B5FD4FF47A70FFF71D
:1038E00027FD32224FF0FF314448FFF7ABFD4FF484
:1038F0007A70FFF71DFD84E7800000204000002063
:103900004400002043414C42000000002000002001
:10391000C400002024000020C8000020CDCCCCCC66
:10392000CCCCE43F10000020140000205245445944
:1039300000000000454C53450000000048490D0AB6
:1039400000000000424F5448000000004C57414C1A
:10395000000000005257414C000000004E4F4E4501
:1039600000000000C0000020BC0000204C65667410
:1039700046726F6E743A202564095269676874460E
:10398000726F6E743A2025640D0A000041626F75F3
:103990007420746F20676F20666F72776172640D98
:1039A0000A0000007000002066696E697368656433
:1039B00020676F696E6720666F72776172640D0AA7
:1039C00000000000180000201C000020666F756ECB
:1039D000642077616C6C2E206F7574206F66207781
:1039E00068696C65206C6F6F700D0A00444F4E451E
:1039F00000000000740000207800002050C9FFFF84
:103A0000704700BFFEE700BFFEE700BFFEE700BF54
:103A1000FEE770477047704710B519480068401CB2
:103A20001749086017480068002802DA0020164984
:103A3000086014480068401E12490860FFF758FEED
:103A400010BD10B52020FCF721FF38B1C82000F0D0
:103A500076F8FFF763FE2020FCF729FF10BD10B5B4
:103A60004FF40050FCF712FF40B1C82000F067F897
:103A7000FFF755FE4FF40050FCF719FF10BD000092
:103A800098000020AC0000203404004010B500284D
:103A900007DA0A07140E3E4A00F00F031B1FD45426
:103AA00003E00A07130E3B4A135410BD10B501F092
:103AB00090F901F0BAF9384800684FF47A71B0FB18
:103AC000F1F4601EB0F1807F01D301200FE0601E91
:103AD0004FF0E02148610F214FF0FF30FFF7D6FF94
:103AE00000204FF0E021886107200861002008B124
:103AF00000BFFEE74FF44070FCF7B2FB0021481E08
:103B0000FFF7C4FF00202549086010BD4FF0E020FA
:103B10008069A821B0FBF1F02049096801EB41025E
:103B2000C2EBC1114FF47A7202EBC101081A1C49B1
:103B30000860084600687047184800687047174AD0
:103B4000116800BF154A1268521A821AFAD17047DA
:103B500010B50346FFF7DAFF044600BFFFF7D6FFB4
:103B6000001B181AFAD110BD10B503460C4600BF51
:103B7000FFF7CCFF001B9842FAD310BD00B50246F8
:103B800000BFFFF7D9FF401A9042FAD300BD0000F2
:103B900018ED00E000E400E0D800002098000020CC
:103BA000940000201CB501210846FDF73DF90121D4
:103BB0000220FDF739F901210420FDF735F9012133
:103BC0000820FDF731F941F60410009001208DF82E
:103BD000040000208DF8060003208DF80500002069
:103BE0008DF8070069461D48FCF7D8FE41F6100025
:103BF000009069461A48FCF7D1FE4FF4E05000905F
:103C000069461848FCF7CAFE042000906946164829
:103C1000FCF7C4FE8020009002208DF80700694662
:103C20000E48FCF7BBFE8620009002208DF80700AE
:103C300069460C48FCF7B2FE02210A48FCF72CFF4B
:103C400080210848FCF728FF80210448FCF724FF66
:103C500004210448FCF720FF1CBD000000000240C6
:103C60000004024000080240000C024000B585B08C
:103C700001218803FDF71CF901210620FDF7D4F886
:103C800005210120FDF718FC00208DF808008DF8B3
:103C90000B002020019001A92748FCF77FFE20207F
:103CA000039000208DF8100008208DF811000120ED
:103CB0008DF8120003A8FCF783FD17208DF8000093
:103CC00001208DF8010000208DF8020001208DF800
:103CD00003006846FCF7C9FA00208DF808008DF84B
:103CE0000B004FF40050019001A91448FCF756FE58
:103CF0000D210220FDF7E0FB4FF40050039000205F
:103D00008DF8100008208DF8110001208DF81200A8
:103D100003A8FCF755FD28208DF8000001208DF840
:103D2000010000208DF8020001208DF80300684694
:103D3000FCF79BFA05B000BD0004024000080240F9
:103D400010B588B0044601210220FDF76DF801216D
:103D50001020FDF7ADF807220921A548FCF7A9FEC0
:103D600007220A21A248FCF7A4FE00208DF81E00BD
:103D700001208DF81F0002208DF81C004FF4C06058
:103D8000069002208DF81D0006A99948FCF706FE52
:103D900001219848FEF704FB02940020ADF80C00C6
:103DA000ADF80E00ADF81000ADF814000C20ADF821
:103DB00012000020ADF800004FF48060ADF8020062
:103DC0000020ADF80600ADF8040002A98948FEF70E
:103DD0004BFA69468748FEF7B9FA01218548FEF794
:103DE000CBFA08B010BD10B588B0044601210846D2
:103DF000FDF71AF801214804FDF749F807220221CE
:103E00007B48FCF756FE072203217948FCF751FE58
:103E100000208DF81E0001208DF81F0002208DF873
:103E20001C000C20069002208DF81D0006A9704889
:103E3000FCF7B4FD01217048FEF7B2FA02940020AD
:103E4000ADF80C00ADF80E00ADF81000ADF81400A0
:103E50000C20ADF812000020ADF800004FF4806097
:103E6000ADF802000020ADF80600ADF8040002A98C
:103E70006148FEF7F9F969465F48FEF767FA0121E4
:103E80005D48FEF779FA08B010BD014600BF7047E3
:103E900070B504460D46E1B25648FEF798FA00BFE9
:103EA00080215448FEF743FB0028F9D0204670BD1E
:103EB000014600BF4F4A128802F02002002AF9D0C2
:103EC0004C4A9288C2F30800704710B5044600BF00
:103ED00080214848FEF72BFB0028F9D0A1B24548C5
:103EE000FEF775FA204610BD10B544A001F00CF89D
:103EF00000BF20213F48FEF71AFB0028F9D03D48BB
:103F0000FEF769FAC0B210BD10B545A000F0FCFF85
:103F100000BF20213748FEF70AFB0028F9D03548BA
:103F2000FEF759FA0446214645A000F0EDFF31485E
:103F3000FEF751FAC0B210BD10B543A000F0E4FF87
:103F400000BF20212B48FEF7F2FA0028F9D02948BB
:103F5000FEF741FAA0F13004214642A000F0D4FF60
:103F60002448FEF738FA303810BD10B586B0044644
:103F700021463EA000F0C8FF01A943A001F012F9BC
:103F800001A942A000F0C0FF0BE0214641A000F0D3
:103F9000BBFF01A93CA001F005F901A93BA000F07D
:103FA000B3FF214601A801F04DFA0028EDD106B07B
:103FB00010BD38B50446214641A000F0A5FF694672
:103FC00046A001F0EFF827A0009900F09DFF0BE05C
:103FD000214643A000F098FF694640A001F0E2F8B6
:103FE00020A0009900F090FF0098A042F0D138BDC9
:103FF0000000024000100140004400400D0A7072B1
:1040000065737320616E79206B657920746F20630E
:104010006F6E74696E75652E2E2E0D0A0D0A0000E6
:10402000706C6561736520656E74657220612063D4
:104030006861726163746F722E2E2E0D0A0000008B
:1040400025630D0A00000000706C656173652065D2
:104050006E74657220612064696769742E2E2E0D5E
:104060000A00000025640D0A00000000507265730C
:104070007320257320746F20436F6E74696E7565AD
:104080002E2E2E203A0000002573000025730D0A05
:1040900000000000496E76616C696420696E70757D
:1040A000742C20707265737320257320746F204305
:1040B0006F6E74696E75652E2E2E203A000000001A
:1040C000507265737320256420746F20436F6E7483
:1040D000696E75652E2E2E203A00000025640000C2
:1040E000496E76616C696420696E7075742C2070FD
:1040F0007265737320256420746F20436F6E74693A
:104100006E75652E2E2E203A000000002DE9F0413C
:1041100005464FF480415948FCF7BEFC4021584801
:10412000FCF7BAFC002416E0285D00EB800055493E
:10413000471800260CE000BF02215348FDF773F931
:104140000028F9D039785048FDF736F97F1C761CE5
:10415000052EF0DB641C042CE6DB00BF02214A487C
:10416000FDF761F90028F9D000BF80214648FDF72E
:104170005AF90128F9D040214148FCF78BFCBDE8F1
:10418000F0811CB50446234640A20521684600F094
:10419000C7FE6846FFF7BAFF1CBD00B52DED048BC6
:1041A00085B0B0EE408A18EE100A02F0B5FE41EC80
:1041B000190B8DED009B37A2052103A800F0B0FE7E
:1041C00003A8FFF7A3FF05B0BDEC048B00BD1CB531
:1041D0000446234631A20521684600F0A1FE684648
:1041E000FFF794FF1CBD70B50546002406E0285D6E
:1041F00018B92846FFF78AFF70BD641C032CF6DB54
:10420000002407E02819FFF781FF4FF47A70FFF7C9
:1042100096FC641CE01C285C0028F3D100BFEBE78F
:1042200010B54FF480411548FCF736FC4021144886
:10423000FCF732FC00240BE000BF02211248FDF71E
:10424000F2F80028F9D000210F48FDF7B5F8641CFA
:10425000142CF1DB00BF02210B48FDF7E4F8002825
:10426000F9D000BF80210848FDF7DDF80128F9D01A
:1042700040210348FCF70EFC10BD00000004024082
:10428000000802400870000800380040452530331F
:1042900064000000252E31660000000025303464E3
:1042A0000000000010B504464FF480415348FCF76D
:1042B000F1FB40215248FCF7EFFB00BF02215148BF
:1042C000FDF7B1F80028F9D021464E48FDF774F803
:1042D00000BF02214B48FDF7A6F80028F9D000BF27
:1042E00080214848FDF79FF80128F9D04021444833
:1042F000FCF7D0FB4FF480414048FCF7CDFB10BDEC
:1043000000B587B001218803FCF7C1FD012102201F
:10431000FCF78AFD01210420FCF786FD05220D2112
:104320003648FCF7C6FB05220F213448FCF7C1FBD9
:1043300002208DF818008DF8190000208DF81A0061
:104340008DF81B004FF42040059005A92B48FCF781
:1043500025FB4FF48040059001208DF818000020C7
:104360008DF81A0003208DF8190000208DF81B002D
:1043700005A92248FCF712FB4020059001208DF88A
:10438000180000208DF81A0003208DF81900002075
:104390008DF81B0005A91A48FCF700FB1948FCF72B
:1043A00081FE6846FCF771FF4FF48270ADF80200A1
:1043B0004FF44040ADF800004FF40070ADF80A0033
:1043C0000020ADF80C0069460E48FCF791FE012173
:1043D0000C48FCF7AEFF01210A48FCF76CFF0121F5
:1043E0000848FCF797FF40210548FCF753FB77206E
:1043F000FFF758FFFFF714FF07B000BD00040240AD
:1044000000080240003800401CB501210420FCF7E0
:104410003EFD4FF47070009002208DF804000320E0
:104420008DF8050000208DF806008DF8070069461C
:104430005648FCF7B3FA022206215448FCF739FB30
:10444000022207215148FCF734FB022208214F4881
:10445000FCF72FFB022209214C48FCF72AFB1CBD6C
:1044600000B589B040F2E73007900320ADF818009E
:104470000020ADF82000ADF81A0006A94448FDF769
:1044800000F96020ADF804000120ADF806004148B5
:10449000008803900020ADF8100001A93C48FDF70A
:1044A00085F908213A48FDF70EFB0120ADF806001A
:1044B00039480088039001A93548FDF7B0F9082173
:1044C0003348FDF709FB0120ADF8060033480088AA
:1044D000039001A92E48FDF7EFF908212C48FDF7BC
:1044E00008FB0120ADF806002D480088039001A9C3
:1044F0002748FDF747FA08212548FDF703FB01216E
:104500002348FDF729F901212148FDF743F909B0B6
:1045100000BD10B5FFF778FFFFF7A2FF10BDB0F5A3
:104520007A7F01DB40F2E73010F57A7F00DC1D482E
:10453000002807DB1649343108600021144A38325C
:10454000116006E00021124A343211604142121D0E
:1045500011607047B0F57A7F01DB40F2E73010F56B
:104560007A7F00DC0F484042002807DB08493C31D5
:1045700008600021064A4032116006E00021044A2A
:104580003C3211604142121D11607047000402402C
:1045900000080040A4000020A6000020A800002081
:1045A000AA00002019FCFFFF00B58BB001210220FA
:1045B000FCF76DFC4020099002208DF828000320B4
:1045C0008DF8290000208DF82A0002208DF82B009C
:1045D00009A93448FCF7E2F9022206213148FCF728
:1045E00068FA952007908B20ADF818000020ADF8F0
:1045F0002000ADF81A0006A92B48FDF742F860200C
:10460000ADF804000120ADF8060000200390ADF8DD
:10461000100001A92448FDF7C9F808212248FDF738
:1046200052FA01212048FDF797F801211E48FDF7B5
:10463000B1F80BB000BD70B504468C2060431B4937
:104640000860952018492C310860002512E01648B2
:104650002C300068401CC0081349343108604620E3
:10466000FFF76DFA00201049343108604620FFF74B
:1046700066FA6D1CA542EADB70BD0B4A2C3212684B
:10468000521C9208084B34331A60094A92FBF1F22B
:104690008C2392FBF3F2521E034B2C331A60034A15
:1046A000106070470000024000040040AC00002091
:1046B00000BD01051CB501210920FCF7E8FB022023
:1046C0008DF8040001208DF8070048F203000090E7
:1046D00069462748FCF762F908200090694625489A
:1046E000FCF75CF9022200212148FCF7E2F90222E2
:1046F00001211F48FCF7DDF901220F211C48FCF7BE
:10470000D8F9012203211B48FCF7D3F94FF0FF3100
:104710001948FDF701F84FF0FF314FF08040FCF7EA
:10472000FBFF00231A4603211348FDF71EFD022359
:10473000002203215807FDF718FD01210E48FDF75F
:1047400029F801218807FDF725F81CBD0A48243007
:1047500000687047002008492431086070474FF016
:104760008040406A704700204FF0804148627047A7
:104770000000024000040240000C004000B58DB073
:1047800001210802FCF794FB3820019003208DF8EA
:10479000080000208DF80B0001A93548FCF7FEF851
:1047A000032001908DF8080000208DF80B0001A96E
:1047B0003048FCF7F3F83020019003208DF8080012
:1047C00000208DF80B0001A92B48FCF7E7F800202A
:1047D00003904FF480300490002005904FF47060F7
:1047E000069003A8FBF7E6FD002007908DF8200057
:1047F0008DF821000A900B9001208DF8300007A958
:104800001E48FBF7A8FD012240F205211B48FBF7DB
:1048100089FF01211948FBF7E4FD80211648FCF7C8
:104820003BF902211448FCF737F980211048FCF7C6
:1048300033F904211048FCF72FF90DB000BD70B515
:1048400005460E4614462346012231462846FBF70C
:1048500008FE2846FBF761FE00BF02212846FBF751
:104860007DFF0028F9D02846FBF793FE70BD0000BD
:104870000000024000040240000802400020014005
:1048800010B504220321D148FFF7D9FFD0490860B1
:104890000846006840F2293148434FF44B6190FBD1
:1048A000F1F0CC49086010BD10B504220921C748B9
:1048B000FFF7C5FFC849086004220521C348FFF778
:1048C000BEFFC649086004220821C048FFF7B7FFB1
:1048D000C349086004221146BC48FFF7B0FFC14934
:1048E0000860FFF713F904468021BF48FCF7D2F8AF
:1048F00021463C20FFF738F904220921B348FFF78D
:104900009EFFB5490968401AB34908608021B6483E
:10491000FCF7C2F8B0480068002802DA0020AE496F
:10492000086021468C20FFF71FF90221AE48FCF7F2
:10493000B1F82146C820FFF717F904220521A34842
:10494000FFF77DFFA5490968401AA44908600221C4
:10495000A548FCF7A1F8A1480068002802DA002069
:104960009E49086021464FF48C70FFF7FDF88021C6
:104970009E48FCF78FF804219B48FCF78BF82146F2
:104980004FF4AA70FFF7F0F8042208218F48FFF7D0
:1049900056FF93490968401A91490860042211465C
:1049A0008A48FFF74CFF8F490968401A8D49086013
:1049B00080218E48FCF770F804218B48FCF76CF8D6
:1049C00087480068002802DA002085490860854889
:1049D0000068002802DA002082490860FFF750FFD3
:1049E0007D4800688249096848434FF47A7190FB1A
:1049F000F1F079490860794800687D4909684843C1
:104A00004FF47A7190FBF1F07449086074480068C3
:104A10007749096848434FF47A7190FBF1F0704987
:104A20000860704800687249096848434FF47A7119
:104A300090FBF1F06B49086010BD70B514250020A3
:104A40006C49086000240AE004220F215F48FFF748
:104A5000F6FE68490968084466490860641CAC426F
:104A6000F2DB4CF2503090FBF5F0624909684843A4
:104A700060490860084600685F49401A5D4908605F
:104A8000084600684CF2503190FBF1F0594908603B
:104A90000868C11700EB91718910564A11601046E1
:104AA0000068801E11460860544800680968084480
:104AB0005249086070BD10B546480068B0F52F7FB8
:104AC0007BDA0020FFF72BFD0020FFF743FD72E0AB
:104AD0004BA0FFF71BFB4FF400614448FBF7DCFFE2
:104AE0004FF480514148FBF7D7FF4FF480613E48B7
:104AF000FBF7D2FF4FF400613B48FBF7CDFF4FF4CB
:104B000080513948FBF7C8FF04213F48FBF7C4FF39
:104B10004FF480713548FBF7BFFF10213B48FBF78E
:104B2000BBFF4FF480513948FBF7B6FF04212F48F3
:104B3000FBF7B2FF4FF400613448FBF7ADFFC8202C
:104B4000FEF7FDFFFFF76CFB4FF400612748FBF712
:104B5000A1FF4FF480512548FBF79CFF4FF4806183
:104B60002148FBF797FF4FF400611F48FBF792FFC6
:104B70004FF480511C48FBF78DFF04212248FBF7BE
:104B800089FF4FF480711948FBF784FF10211F48FB
:104B9000FBF780FF4FF480511C48FBF77BFF04219B
:104BA0001248FBF777FF4FF400611848FBF772FFDC
:104BB000C820FEF7C4FF8BE7FFE706480068FFF751
:104BC00006FB4FF47A70FEF7BAFF10BD00200140DB
:104BD000B4000020B8000020BC000020C00000206D
:104BE000C4000020C800002000080240000002406D
:104BF000B0000020D000002020C38A05D40000208F
:104C00004C62617400000000000C0240000402408D
:104C10000948804709480047FEE7FEE7FEE7FEE750
:104C2000FEE7FEE7FEE7FEE7FEE7FEE7044805498C
:104C3000054A064B70470000D34D00088901000863
:104C400050240020502A002050260020502600200A
:104C50000CB50020019000909F48006840F480301F
:104C60009D49086000BF9C48006800F40030009037
:104C70000198401C0190009818B90198B0F5A06FF8
:104C8000F1D19548006800F4003010B10120009087
:104C900001E0002000900098012847D18E48403064
:104CA000006840F080508C49403108608B480068B3
:104CB00040F4804089490860874808300068864988
:104CC000083108600846006840F400400860084663
:104CD000006840F4A05008608148091F0860081F60
:104CE000006840F08070091F086000BF7A480068C3
:104CF00000F000700028F9D040F2056079490860A2
:104D000075480830006820F00300734908310860D6
:104D10000846006840F00200086000BF6E48083096
:104D2000006800F00C000828F8D151E06A480068DB
:104D30006D490840684908600846006840F0010075
:104D4000086065484030006840F08050624940315A
:104D500008606248006840F48040604908605E482E
:104D6000083000685C49083108600846006840F473
:104D7000004008600846006840F4A05008605848A9
:104D8000091F0860081F006840F08070091F086054
:104D900000BF5148006800F000700028F9D040F2D0
:104DA0000560504908604C480830006820F0030056
:104DB0004949083108600846006840F00200086070
:104DC00000BF45480830006800F00C000828F8D102
:104DD0000CBD10B54548006840F4700043490860B8
:104DE0003D48006840F001003B49086000203A4916
:104DF00008310860384800683B4908403649086077
:104E00003B48091D0860081F006820F48020091F26
:104E10000860002030490C310860FFF719FF4FF09F
:104E2000006032498039086010BD70B50020002252
:104E3000022300240221284D08352D6805F00C00BE
:104E400020B1042806D0082834D107E0294D2A4E85
:104E5000356033E0294D284E35602FE01E4D2D1D65
:104E60002D68C5F380541C4D2D1D2D6805F03F01A4
:104E700054B1224DB5FBF1F5174E361D3668C6F319
:104E8000881605FB06F209E01A4DB5FBF1F5124E46
:104E9000361D3668C6F3881605FB06F20E4D2D1D2D
:104EA0002D68C5F301456D1C6B00B2FBF3F5124E86
:104EB000356003E00F4D104E356000BF00BF064D5A
:104EC00008352D68C5F303150D4E705D0A4D2D682C
:104ED000C540094E356070BD00380240007000408A
:104EE00010540007003C0240FFFFF6FE88ED00E092
:104EF000103000240024F400D800002000127A00B2
:104F0000DC000020704700000FB4044910B503AA6C
:104F1000029800F07DFD10BC5DF814FB9C000020A1
:104F20000FB41CB50C0007AA009001D02044401E0D
:104F3000074B7B4469460190069800F032FD002C37
:104F400003D06946002000F03FFD1CBC5DF814FB57
:104F50009D0A000070B5044685690068C10601D548
:104F6000302600E02026C00707D070BDD4E901211B
:104F700030469047206A401C20626D1EF6D570BDF9
:104F800070B5044685690078C00707D170BDD4E9C3
:104F9000012120209047206A401C20626D1EF6D51A
:104FA00070BD70B50C460546012A05D028788006EC
:104FB00000D5EA69002302E0012305E05B1C93426F
:104FC00002D2E05C0028F9D1A869E618C01AA861ED
:104FD000286A184428622846FFF7BCFF04E0D5E998
:104FE000012114F8010B9047B442F8D32846FFF78B
:104FF000C7FF70BD2DE9F0410646002410687529F1
:10500000314616A510D0AFF30080002802DA4042E6
:1050100013A507E031688A0701D512A502E0490708
:1050200004D511A5012401E0AFF3008000210A227C
:1050300006F1240709E0B0FBF2FCB0FBF2F302FB3F
:105040001C00303078541846491C0028F3D1234600
:105050002A463046BDE8F04100F038BA00000000B2
:105060002D0000002B000000200000002DE9F05F63
:10507000894604464FF0000ADFF824B1FB44C0F82B
:1050800020A02046E168884700287DD0252806D04A
:10509000D4E901219047206A401C2062F1E70025F5
:1050A0005F462046E16888472028064607DB312E08
:1050B00005D2B81910F8200C08B10543F1E7A8078C
:1050C00001D525F00405C4F81CA00027C4F818A0D9
:1050D0002A2E09D0304601F016FC38B304EB8708BD
:1050E000303EC8F8186019E059F8041B204604EB5C
:1050F00087029161E1688847012F064618D1E0696F
:10510000002820DA25F020051DE0D8F8180000EB73
:10511000800006EB40003038C8F818002046E168EF
:105120008847064601F0EFFB0028EED1012F0AD098
:105130002E2E08D12046E16888477F1C0646022FA4
:1051400045F02005C4DBA069002803DA404245F0A1
:105150000105A061E80701D025F01005A6B1A6F170
:105160004100192802D8203645F400654A463146E8
:10517000204625604D46FBF741F860B1012807D075
:10518000ED1D25F0070000E007E000F1080978E7D1
:1051900005F1040975E730467AE7206ABDE8F09F1B
:1051A000B22200000FB400B589B00BA86A46009087
:1051B00003480A9900F04CFC09B05DF814FB0000AC
:1051C000A00000202DE9FF5F1D464FF0FF3B9146F8
:1051D0004FF000085F46D5E90146A96901987F1C98
:1051E0008847296A824688470028F6D1BAF1FF3FEE
:1051F0000CD0002E24F4C06419DD600614D5BAF179
:105200002B0F09D0BAF12D0F0ED103E0584604B090
:10521000BDE8F09F44F48064A96901987F1C884729
:10522000761E8246002E02DDBAF1300F03D0B9F1AE
:10523000000F26D032E0A969761E01987F1C44F445
:1052400000748847002E824605DDBAF1780F06D03B
:10525000BAF1580F03D0B9F1000F10D01EE0B9F128
:10526000000F02D0B9F1100F18D1A969761E01986C
:105270007F1C24F4007488478246102002E0082036
:1052800000E00A20814609E0A96908FB0908761EAA
:1052900001987F1C44F4007488478246002E05DD87
:1052A0004946504600F0C6FB0028EDDAE96901984E
:1052B0008847A00502D46FF00100A8E7E00725D1D8
:1052C000600613D5600502D5C8F1000000E0404635
:1052D00029680A1D2A600968220501D5087015E0B1
:1052E000220701D5088011E008600FE02868011D41
:1052F00029600068210502D580F8008006E02107BA
:1053000002D5A0F8008001E0C0F8008038467EE7B2
:105310002DE9FF5F4FF00008994614464646916913
:10532000D2E901A7DDF838B001988847054659EA67
:105330000B0005D009E0A1690198761C8847054655
:10534000216A284688470028F5D1681C03D05FEA07
:10535000CA7005D015E04FF0FF3004B0BDE8F09FF3
:105360002068011D2160D0F800800AE05FEACA7061
:1053700001D108F8015BA169761C01987F1E88475E
:105380000546002F1ADD681C18D0B9F1000F0DD0AA
:10539000E81705EBD060421120F01F0059F82210E9
:1053A0002A1A012090400142E0D107E0BBF1000F32
:1053B000DCD12846216A88470028D7D0E1690198C6
:1053C0008847BBF1000F07D1002E05DD5FEACA70E8
:1053D00002D1002188F80010A068B84203DDBBF1BB
:1053E000000F03D017B16FF00100B6E73046B4E705
:1053F00002F0FF0343EA032242EA024200F002B84D
:105400004FF000020429C0F0128010F0030C00F0ED
:105410002D83CCF1040CBCF1020F18BF00F8012B56
:10542000A8BF20F8022BA1EB0C0100F01FBB5FEA24
:10543000C17C24BF00F8012B00F8012B48BF00F805
:10544000012B70474FF0013C50F8042B51F8043BFE
:105450009A4221D1A2EB0C03934313EACC1317D148
:1054600050F8042B51F8043B9A4215D1A2EB0C03DF
:10547000934313EACC130BD150F8042B51F8043B9F
:105480009A4209D1A2EB0C03934313EACC13DBD06D
:105490004FF00000704700BFD01A01BAB1FA81F195
:1054A00001F0180122FA01F0CB40C1F12001DBB27A
:1054B000C0B2C01A2CFA01F3D11A914311EAC311F8
:1054C000E6D1704770477047704770472DE9F04745
:1054D0000D4699469246044600F124080168880664
:1054E00004D5E06921F01001216000E00120A8420C
:1054F00001DD471B00E00027A1697A1902EB0900D2
:10550000081AA0612078C00602D42046FFF722FDC9
:10551000002608E0D4E901211AF806009047206A25
:10552000401C761C20624E45F4DB2078C0060AD56C
:105530002046FFF70FFD06E0D4E901213020904717
:10554000206A401C2062381EA7F10107F4DC07E046
:10555000D4E9012118F805009047206A401C206218
:10556000281EA5F10105F3DC2046FFF709FD207890
:10557000000602D50220BDE8F0870120FBE7704756
:105580002DE9FF4F0C461E464FF0FF378BB0D2E996
:105590000001DDF860800A908A46C1F30A5505B91A
:1055A0003D46002108464FF00000BAF1000F00F41C
:1055B000400005DA00EB80004FF4400101EA5000A2
:1055C0004FEA9059B9F1010F00DDB9460A9850EA47
:1055D0004A000ED044F61050A5F2FF3545432F1473
:1055E000B8F1000F1ED07542291E1EDDC9F1000260
:1055F0001CE0B8F1010F4FF0000001D0302103E0B2
:10560000F24305E02154401CB042FBDB304600224F
:10561000002121540B99C1F80880C1E900200FB086
:10562000BDE8F08FBD1B6D1CDEE74A4600DA69421B
:1056300006A800F0E1FA06AB93E8070003AB83E8A5
:10564000070050460A9900F08BFD8DE80700A0F591
:1056500000501F3800900398002D09DD42F21F0111
:105660004A46084403A90390684600F0EAFF08E0B0
:10567000A0F500504A461F3803A90390684600F081
:10568000F4FF8DE807000004000C03D04FF0FF305A
:10569000410800E01046B8F1000F03D0002200924C
:1056A00015461EE0751E05D400F00AFA3032625528
:1056B0006D1EF9D5B3460122084302D000227F1C9B
:1056C00004E02078302801D100227F1E002A0997AB
:1056D00086D01DE0112D07DA00F0F2F93032625564
:1056E0006D1C50EA0102F5D1084302D00098C8B100
:1056F0000EE00021681E05E0235C625C63542254C6
:10570000401E491C8142F7DBAB46A81B401E099096
:10571000002004F80B000B98099AC0F80880C0E933
:10572000002B7CE711264FF0000859E72DE9F04FD8
:1057300088460446D21D22F0070191B0D1E900014C
:10574000CDE90A0101F0C7F802460B98C00F01D05D
:105750002D2007E02068810701D52B2002E02021C1
:1057600001EAC000032A099001D0072A05DB03469D
:105770004146204600F0EAF90BE12078800601D589
:10578000E06900E00620B8F1650F814606D0B8F167
:10579000660F18D0B8F1670F70D131E00020B9F171
:1057A000110F009001DB112301E009F101030AAAA6
:1057B00001A90CA8FFF7E4FEDDE90C70002609F151
:1057C0000105834647E001204B4600904FF000471B
:1057D0000AAA01A90CA8FFF7D3FEDDE90DB00C99C8
:1057E0005D46002610B909F101000D18B9EB05005E
:1057F00003D4C0F1FF3609F10105A5EB09002BE048
:10580000B9F1010F01DA4FF001090020B9F1110FD0
:105810000090484601DD112300E003460AAA01A9D1
:105820000CA8FFF7ADFEDDE90C704D46002683465F
:10583000207800070AD4AB4500DA5D4601A8012DA7
:1058400004DD411911F8011C302907D04F4502DA57
:1058500017F1040F04DA012082460FE06D1EEEE717
:10586000002F02DCED1B3E4403E0781CA84200DD63
:105870007D1CB81B00F1010A4FF00047207800079B
:1058800003D4AA4501DB4FF0FF3A0021B7F1004FE6
:105890000DF143088DF8431024D002202B23002F54
:1058A00001DA7F422D230A21021EA0F1010000DC53
:1058B0005FB197FBF1FC97FBF1F201FB1C7C1746F3
:1058C0000CF1300C08F801CDEEE7A8F101000370EF
:1058D0002188090501D5452100E06521A0F10108D5
:1058E00000F8011C09980FA9A1EB0807FF1D00B1E2
:1058F0000120411901EBEA70A1693844081A401EE1
:10590000A0612078C00602D42046FFF723FB099847
:1059100028B1D4E901219047206A401C20622078F8
:10592000C00622D52046FFF715FB1EE0002E04DB43
:10593000B34502DD01A8805D00E03020D4E90121FB
:105940009047206A401C2062761CAAF101005FEAA1
:10595000000A0AD100F0B0F8C0680168405CD4E9E0
:1059600001219047206A401C2062281EA5F10105F4
:10597000DCDC07E0D4E9012118F8010B9047206A2C
:10598000401C2062381EA7F10107F3DC2046FFF718
:10599000F7FA032011B043E601694A1C0261087856
:1059A000704700B58FB0CDE901310021059105495F
:1059B0007944CDE9031011466846FFF757FB0FB055
:1059C00000BD0000E5FFFFFF0A6802F8010B0A6056
:1059D0007047D1E900239A4202D2531C0B60107029
:1059E000704710B5436913B1AFF3008001E0FFF7D2
:1059F000D8FA012010BD127800F124010A700022AB
:105A00004A700122EDE711684FF0FF32E9E700002C
:105A1000074B70B50D467B44FFF7C3FF044628468D
:105A200000F07CF910B14FF0FF3070BD204670BD22
:105A300077E4FFFF3A2800D2303820F02002412AD4
:105A400001D3A2F13700884201D34FF0FF307047F5
:105A5000034B7B449361034B7B44D36100F0BCB8A0
:105A60005BE4FFFF7B0200004FF0000200B513462D
:105A700094469646203922BFA0E80C50A0E80C506E
:105A8000B1F12001BFF4F7AF090728BFA0E80C501F
:105A900048BF0CC05DF804EB890028BF40F8042B18
:105AA00008BF704748BF20F8022B11F0804F18BF85
:105AB00000F8012B704700000048704710240020B8
:105AC00030B5B0F10A024FEA900E71F100034EEAD0
:105AD000817EB0EB0E0061EB91014FEA101E4EEAA1
